:020000040800F2
:10000000800500204501000847550008171C00081E
:100010004555000875050008D1590008000000008A
:100020000000000000000000000000004B55000828
:10003000290700080000000049550008E55600089F
:100040005F0100085F0100085F0100085F01000810
:100050005F0100085F0100085F0100085F01000800
:100060005F0100085F010008610700085F010008E8
:100070005F0100085F0100085F0100085F010008E0
:100080005F0100085F0100085F0100080000000038
:100090000000000000000000000000005F010008F8
:1000A0000000000000000000000000000000000050
:1000B000895700085F0100085F0100085F01000820
:1000C0005F0100085F0100085F0100085F01000890
:1000D0005F0100085F0100085F0100085F01000880
:1000E0005F0100085F010008000000000000000040
:1000F0000000000000000000000000000000000000
:100100005F010008000000005F0100085F010008B7
:100110005F0100085F0100085F0100085F0100083F
:100120005F0100085F0100085F0100085F0100082F
:10013000DFF80CD000F060F900480047355F000898
:10014000800500200648804706480047FEE7FEE796
:10015000FEE7FEE7FEE7FEE7FEE7FEE7FEE7FEE777
:100160004157000831010008D2B201E000F8012B2C
:10017000491EFBD270470022F6E710B513460A4627
:1001800004461946FFF7F0FF204610BD2DE9FE4F4B
:1001900081EA030404F0004421F0004100944FF090
:1001A000000B23F0004350EA01045ED052EA03043E
:1001B0005BD0C3F30A54C1F30A552C44A4F2F334C0
:1001C0000194A0FB0254C1F3130141F48011C3F365
:1001D000130343F4801301FB024400FB034E840A23
:1001E000970A44EA815447EA8357A4FB07680295BB
:1001F0008D0A05FB07854FEA932C04FB0C54270559
:10020000029D4FEA065847EA1637B5EB08056EEB34
:10021000070C870E920E47EA811742EA8312A7FB6A
:100220000201B6EB0B0164EB00042B0D43EA0C3327
:100230005E1844EB1C50DA465146E7FB0201C5F359
:1002400013044FEA0B3343EA14534FEA0432019C80
:1002500043EA0603A4F10C040294009CCDE900B427
:1002600000F07CF803B0BDE8F08F00200146F9E70C
:100270000EB540F2334102910021CDE900110A464A
:100280000B4600F06BF803B000BDC1F30A5210B585
:10029000C1F3130140F2FF3341F480119A4201DAB5
:1002A000002010BD40F233439A42A2F2334203DCF5
:1002B000524200F034F810BD904010BD2DE9F05FBF
:1002C0000546002092469B468846064681464024C5
:1002D0001BE0284641464746224600F020F8534698
:1002E0005A46C01A914110D311461846224600F0D2
:1002F00095F82D1A67EB01084F4622460120002190
:1003000000F08CF817EB00094E41201EA4F1010407
:10031000DFDC484631462A464346BDE8F09F202AA6
:1003200004DB203A21FA02F00021704721FA02F39F
:10033000D040C2F12002914008431946704710B5E1
:10034000141E73F1000408DA401C41F100019218F8
:100350005B411A4301D120F0010010BD2DE9F04DA1
:1003600092469B4611B1B1FA81F202E0B0FA80F2F6
:100370002032904600F052F804460F4640EA0A0048
:1003800041EA0B0153465A46084313D0114653EA3B
:10039000010019D0C8F140025046FFF7C0FF0546E2
:1003A0000E4650465946424600F038F8084305D0FC
:1003B000012004E020463946BDE8F08D00200543C9
:1003C00046EAE0762C4337430A986305E40AA0EB3B
:1003D00008000022FD0A44EA47540A3002D50020F2
:1003E0000146E9E7010510196941DDE908450019F1
:1003F0006941BDE8F04DA2E7064C074D06E0E06814
:1004000040F0010394E8070098471034AC42F6D35B
:10041000FFF792FE607A0008807A0008202A04DB49
:10042000203A00FA02F1002070479140C2F1200307
:1004300020FA03F319439040704700003EB50E4880
:100440000C490124016000214160816001734FF477
:1004500060210461C16100F0B9FA08B100F09CF9B3
:100460000E20CDE90004062002906946024800F003
:100470002BFA3EBD00240140F800002070B5044670
:1004800000688168C943C9071CD1816821F0010156
:10049000816000F059FD05460FE000BF00F054FDFB
:1004A000401B022809D9A06A40F01000A062E06A4F
:1004B00040F00100E062012070BD20688068C04308
:1004C000C007EBD0002070BDF8B5002604460096AA
:1004D00000688168C943C90728D0816841F00101DB
:1004E0008160134813490068B0FBF1F000E0401E42
:1004F00000900028FBD100F027FD054611E000BF69
:1005000000F022FD401B02280BD9A06A40F0100029
:10051000A062E06A40F00100E06284F824600120FB
:10052000F8BD20688068C043C007E9D10020F8BD4D
:100530000000002040420F000B48016889B20160B2
:1005400001680A4A1143016007480C30016821F034
:10055000F0010160064801686FF30F010160016856
:10056000D20C1143016070470008014000008888E8
:1005700000100140FEE700000448016821F47041CA
:100580000160016841F4804101607047001801403A
:100590000448016821F470410160016841F4805110
:1005A000016070470018014070B50024124D04E04E
:1005B000641CE4B2012005F08BFC0821284600F001
:1005C000B9FC38B1642CF3D304E0641CE4B201201C
:1005D00005F07EFC0821284600F0ACFC08B9C82CC8
:1005E000F3D3282005F074FC0821284600F0A2FC73
:1005F000002800D0012070BD0018014070B5002017
:1006000004464006050EFFF7CFFF641C2843E4B202
:10061000082CF6D370BD00002DE9FC410D460646BE
:1006200000F02EF8E8B900244FEA0D07FFF7E6FFC7
:100630003855641CE4B2052CF8D39DF800109DF8E1
:1006400001009DF803300A189DF8020003441A4483
:100650009DF804309A4207D12970307003A005F04C
:10066000D5F90020BDE8FC810120FBE774656D70C1
:100670005F63616C63756C6174655F6F6B0D0A001D
:1006800070B50024FFF784FF002000F03DF814202F
:1006900000F034FB012000F037F81E2005F018FCB4
:1006A000FFF76AFF144D04E0641CE4B2012005F07A
:1006B0000FFC0821284600F03DFC10B1642CF3D358
:1006C00001E0642C03D30DA005F0A0F906E000249E
:1006D00004E0641CE4B2012005F0FAFB082128467E
:1006E00000F028FC18B1642C04D3012070BD642CE8
:1006F000EFD3FAE7002070BD001801407273743D1B
:100700006572726F720D0A00064928B1012807D17F
:10071000086840F0080002E0086820F0080008605F
:10072000704700000C180140704700001FB5002002
:100730000390094801901020009001200290694622
:10074000064800F0FBFA002211460A2000F01AFDCC
:100750000A2000F00AFD1FBD000021100018014012
:1007600010B508480068084C2060102000F0DAFA44
:100770002068062190FBF1F12160BDE8104003A044
:1007800005F044B92404004004000020434E543DC9
:10079000253264636D0D0A0001A005F037B9000031
:1007A0006572726F7200000030B5B3F5804F05D0EE
:1007B0006FF0704140F82210002030BD8C690B684A
:1007C0008D6823434C688989240144EA0524234326
:1007D00043EA014150F82230014C23401943E9E734
:1007E0000000F0CF10B50A6850F8223023F0010362
:1007F00040F822308C68082C23D000234A6822431A
:10080000CC681C430B6922431A434B691A438B691A
:100810001A43CB691A430B6A1A434B6A1A438B6A11
:100820001A43CB6A1A430B6B1A434B6B09681A4382
:1008300050F82130044C23401A4340F82120002076
:1008400010BD4023DAE700008000F0FF30B5D1E9A9
:10085000003443EA04138C688D89240244EA054479
:1008600023430C8A094D00EB820005EB045423431B
:100870000C7D6D0105EB0464896923430B434168DA
:1008800001F040410B434360002030BD0000F0FF09
:10089000094940F2FD10886108480168084A114082
:1008A00001600168074A1143016004480C30016887
:1008B00041F001010160704700100240000C01404E
:1008C000F0FF0FFF01001000F8B50024009490F82D
:1008D00024202546012A12D0012280F824204A68CB
:1008E0001F23072A0DD20668776B521E02EB820285
:1008F00093409F430B6893401F43776319E00220A6
:10090000F8BD06680D2A0AD2376BD21F02EB8202AD
:1009100093409F430B6893401F43376309E0F76A96
:100920000D3A02EB820293409F430B6893401F43B2
:10093000F7620A68072306680A2A0AD3F7680A3AA0
:1009400002EB420293409F438B6893401F43F76042
:1009500008E0376902EB420293409F438B68934063
:100960001F4337610A68102A01D0112A20D1124B87
:1009700002689A4217D193681B0219D4936843F412
:10098000000393600968102912D10C490C4A0968C8
:10099000B1FBF2F101EB8101490000E0491E009139
:1009A0000029FBD104E0816A41F020018162012429
:1009B00080F824502046F8BD0024014000000020AB
:1009C00040420F000068C06C704700002DE9F04104
:1009D00004004FF000057FD0A06A002628B9E66227
:1009E00084F82460204600F081F82046FFF746FD99
:1009F000A16AC90600D420B1A06A40F01000A0622C
:100A00006AE0A16A21F4885141F00201A1623349F0
:100A100023688B42E16904D1B1F5402F01D14FF435
:100A20000021277B4FF4807C41EA470261680A433A
:100A3000A168614508D0012906D0002194F814E08E
:100A4000BEF1010F02D00AE06146F7E7C7B1A76A1D
:100A500047F02007A762E76A47F00107E7625F688F
:100A600027F469470F435F60236899681C4F39403A
:100A700011439960A16861450BD0012909D00CE0B0
:100A8000DFF860E0A7690EEB47370F4347F40061DA
:100A9000E5E7218A0D05A5F580152168CB6A23F4C9
:100AA00070032B43CB62216889680F4B1940914238
:100AB00008D1E662A16A21F0020141F00101A162C0
:100AC000BDE8F081A06A20F0020040F01000A062B2
:100AD000E06A40F00100E0620120F1E7003C0140E3
:100AE000FDF7E1FF00E0FFFFFE0E1FFF05488169F3
:100AF00041F4007181610448016821F470210160B2
:100B00007047000000100240001001402DE9F8433A
:100B100000260D460446009600F016FA804620682E
:100B20008168C90508D5A06A40F02000A06284F859
:100B300024600120BDE8F8834168C90503D4C06A78
:100B400010F4700F26D0022000F04EFB38490968DF
:100B5000B1FBF0F72068036936490B424FEA6101A7
:100B60004FEAA1121BD1C3684FEA611C13EA0C0FB4
:100B700015D103690B4221D1C06810421ED1142047
:100B80001FE0681C06D045B300F0DEF9A0EB0800BA
:100B9000A84222D8206800688007F2D52AE00369BD
:100BA0000B4202D1C168114206D0026922490A42B1
:100BB00006D1C068084203D1542002E0292000E099
:100BC000FC204743009813E0681C0ED02DB100F0C4
:100BD000BBF9A0EB0800A84207D9A06A40F00400C6
:100BE000A06284F824600320A4E70098401C0090D1
:100BF000B842E9D321686FF012000860A06A40F49F
:100C00000070A06220688068C0F3424007280CD1C1
:100C1000207B50B9A06A20F48070A062A06AC00452
:100C200003D4A06A40F00100A062002082E7000027
:100C300000000020244992244992240070B5044603
:100C400090F8240001280DD0012084F824002046CB
:100C5000FFF73AFC02004FF0000005D084F82400B2
:100C6000104670BD022070BDA16A40F20123994375
:100C700041F48071A1621F4D23681F49AB4218D116
:100C80000E6816F4702F14D0A66A46F48016A66279
:100C90000E68760505D5A66A26F4005646F48056F9
:100CA000A662A66AF6040AD5E66A26F00606E66299
:100CB00006E0A66A26F48016A6625E68E9E7E062AE
:100CC00084F824006FF00200186020688368C3F382
:100CD0004243072B05D1A84208D1096811F4702FAF
:100CE00004D0816841F480118160B9E7816841F4E2
:100CF000A001F9E7002801400424014070B5044632
:100D000000F022F90546601C02D004480078044433
:100D100000F01AF9401BA042FAD370BD1000002069
:100D200070470000044910B50A68024202D008600A
:100D3000FFF7F6FF10BD0000140401402DE9F84F45
:100D4000DFF8C891002409F1040A0AF1040B2346D4
:100D50000F270BF1040ED1E00125A54006EA05029C
:100D6000AA4276D1DFF8A8C14E68A6EB0C0866450A
:100D70002BD00DDC032E34D005DC36B3012E19D078
:100D8000022E2FD11BE0112E16D0122E2AD119E0DF
:100D9000B8F5881F19D006DCB8F5803F15D0B8F536
:100DA000801F1FD111E0B8F5001F0ED0B8F5041F49
:100DB00018D10AE0CB6815E0CB681B1D12E0CB68A8
:100DC00008330FE0CB680C330CE08B682BB1012BA0
:100DD0004FF0080303D0456104E0042302E00561FD
:100DE00000E00023FF2A01D8064601E000F10406D6
:100DF0004FEA840501D9A5F12005D6F8008007FA4D
:100E000005FC28EA0C0803FA05F548EA0508C6F8C7
:100E100000804D68ED0070D53E4DAE6946F001068C
:100E2000AE61AD6924F0030605F0010500953A4D69
:100E300006EB050CDCF80850A607360F07FA06F893
:100E400025EA0805DFF8D480404503D14FF00008BB
:100E500025E052E0DFF8C880404502D14FF001089C
:100E60001DE0DFF8C080404502D14FF0020816E0D7
:100E7000DFF8B480404502D14FF003080FE0DFF8FF
:100E8000AC80404502D14FF0040808E0DFF8A080B4
:100E9000404502D14FF0050801E04FF0060808FA7E
:100EA00006F848EA0508CCF808804D68D9F80060D3
:100EB000ED034D4601D5164300E096432E604D6884
:100EC000DAF80060AD03554601D5164300E09643BD
:100ED0002E604D68DBF80060ED025D4601D51643DB
:100EE00000E096432E604D68DEF80060AD02754666
:100EF00001D5164300E096432E60641C0A6816462E
:100F0000E2407FF429AFBDE8F88F00000004014003
:100F100000001110001002400000014000080140D4
:100F2000000C014000100140001401400018014075
:100F3000001C01408068084000D0012070470AB1C1
:100F4000016170470904FBE70148806870470000B1
:100F50001000002070B504001BD094F83D0000255F
:100F600020B984F83C50204600F0AEF8242084F8E4
:100F70003D002068016821F00101016000F034FAB1
:100F80004D4A6168914201D84C4900E04C49884281
:100F900001D2012070BD4B492368B0FBF1F15E68BE
:100FA00026F03F060E435E606368934206D94FF415
:100FB000967359434FF47A73B1FBF3F12368491CDC
:100FC0001E6A26F03F06314319626168914210D8CB
:100FD0004900401EB0FBF1F2521CC2F30B02042A7E
:100FE00001D2042022E0B0FBF1F0401CC0F30B0062
:100FF0001CE0A368F3B301EBC10202EB0116421E31
:10100000B2FBF6F2521C42F48042120549D093B36F
:1010100001EBC10202EB0111401EB0FBF1F0401CDC
:10102000C0F30B0040F4804040F400402168CA69DE
:101030004CF6FF739A431043C861D4E90701084393
:1010400021680A6822F0C00210430860D4E9030155
:1010500001432068826848F2FF339A43114381605C
:10106000D4E9050108432168CA6822F0FF02104351
:10107000C86001E00EE016E02068016841F001015F
:1010800001602564202084F83D00256384F83E50EB
:10109000002070BD01EB4106421EB2FBF6F2521C6D
:1010A000B3E70120C2E701EB4101401EB0FBF1F0C4
:1010B000401CC0F30B00B7E7A086010080841E002F
:1010C00000093D0040420F00094808B5816941F020
:1010D00008018161816901F008010091816941F095
:1010E00008018161806900F00800009008BD0000DF
:1010F0000010024002488168027811448160704704
:1011000010000020074810B5016841F0100101608F
:10111000032000F057F80F2000F006F800F024F844
:10112000002010BD0020024070B50D4D04464FF464
:101130007A712878B1FBF0F00A490968B1FBF0F048
:1011400000F088FB48B9102C07D200222146501E1F
:1011500000F018F800206C6070BD012070BD000028
:1011600010000020000000207047002809DB00F07C
:101170001F02012191404009800000F1E020C0F8E9
:1011800000117047F0B40E4B1B680C46C3F30223EA
:10119000C3F10705042D00D90425191D072901D223
:1011A000002300E0DB1E012606FA05F1491E21405E
:1011B00099409E40761E16403143F0BC04F036BC88
:1011C0000CED00E0064900F0070208684FF6FF0347
:1011D000184040EA0220034A1043086070470000AC
:1011E0000CED00E00000FA0510B52CA401461DCC62
:1011F00086B08DE81D002DA02D4C006804900020C5
:1012000004292FD00BDC01292FD0022928D100F08E
:10121000FBF86168C1F38131491C49001EE00829CF
:1012200020D010291CD161682268D20118D5C1F3E1
:101230008342C9031DF8020009D5616804AAC1F3FD
:101240004041515C1B4AB2FBF1F1484301E01A49AD
:1012500048436168490203D440000321B0FBF1F028
:1012600006B010BD00F0E0F8FAE7226AC2F30121EF
:10127000012903D1920701D5C803F1E7022905D15D
:10128000626A920702D549F64040E9E70329E7D1AF
:1012900021688903E4D54FF22440E1E70203040505
:1012A000060708090A0B0C0D0E0F101001020000B2
:1012B0000010024000127A0000093D002DE9F047BD
:1012C0000F46050061D0434E306800F00700B84279
:1012D00009D2306820F0070038433060306800F0F1
:1012E0000700B84251D128683B4C810712D540070E
:1012F00003D5606840F4E06060602878000703D59B
:10130000606840F4605060606068A96820F0F00098
:10131000084360602878C00728D06868012810D08A
:101320002168022810D0890700292EDA616821F08F
:10133000030101436160FFF707FE804641F28839EF
:101340000DE021688903EFE78901EDE7FFF7FCFD78
:10135000A0EB0801494502D90320BDE8F087606889
:10136000696800F00C00B0EB810FEFD1306800F03D
:101370000700B8420BD9306820F0070038433060CE
:10138000306800F00700B84201D00120E5E7287876
:10139000400705D56068E96820F4E06008436060B4
:1013A0002878000706D56068296920F4605040EA73
:1013B000C100606000F038F86168084AC1F30311A9
:1013C000515CC8400649086006480068FFF7ACFE5B
:1013D0000020C2E7002002400010024038620008EE
:1013E00000000020140000200448054900684968F6
:1013F000044AC1F30221515CC8407047000000203C
:101400000010024048620008044805490068496825
:10141000044AC1F3C221515CC8407047000000205B
:10142000001002404862000812A185B00FC98DE883
:101430000F0014A0144A006804905168134801F08A
:101440000C03042B10D0082B0ED1C1F38343C90326
:101450001DF803000AD5516804AAC1F34041515C4C
:101460000A4A5043B0FBF1F005B0704708494843C1
:10147000FAE7000002030405060708090A0B0C0D31
:101480000E0F1010010200000010024000127A003E
:1014900000093D002DE9F84F040070D02078C04DC0
:1014A000C00749D06868C0F38100012807D0686888
:1014B000C0F38100022809D16868C00306D52868F6
:1014C000800339D560680028E7D035E06068B0F562
:1014D000803F0BD010B1B0F5A02F11D0286820F4B8
:1014E00080302860286820F4802002E0286840F4DA
:1014F00080302860606890B1FFF726FD06460AE05C
:10150000286840F480202860F0E700BFFFF71CFD4A
:10151000801B642873D828688003F7D50CE0FFF798
:1015200013FD064605E000BFFFF70EFD801B642893
:10153000F0D828688003F7D420789A4E80074FF0BF
:1015400001094FF0000839D5686810F00C0F07D07A
:101550006868C0F38100022809D16868C00306D416
:101560002868800714D52069012808D110E0206977
:10157000B0B1C6F80090FFF7E7FC074605E00AE1C6
:10158000FFF7E2FCC01B0228C4D828688007F7D503
:101590002868616920F0F80040EAC10028600DE089
:1015A000C6F80080FFF7D0FC074604E0FFF7CCFC4C
:1015B000C01B022823D828688007F7D420780007AA
:1015C0002CD57948A169D9B1C0F80090FFF7BCFCCF
:1015D000074604E0FFF7B8FCC01B02280FD8686A72
:1015E0008007F7D571484FF4FA510068B0FBF1F06D
:1015F000009000BF0098411E0091FAD20EE080E0FA
:10160000C0F80080FFF7A0FC074604E0FFF79CFC51
:10161000C01B022875D8686A8007F7D42078400775
:1016200060D5E8690027C00008D4E86940F0805020
:10163000E861E869012700F0805000905C4801688B
:10164000C90513D40168834641F480710160FFF736
:101650007BFC824606E000BFFFF776FCA0EB0A00A9
:1016600064284ED8DBF80000C005F5D5E0680128F5
:101670000AD008B1052813D0286A20F0010028629A
:10168000286A20F0040002E0286A40F00100286285
:10169000E06841F2883B98B1FFF756FC82460BE0C8
:1016A000286A40F004002862EEE700BFFFF74CFC18
:1016B000A0EB0A0159455AD8286A8007F6D50CE0F4
:1016C000FFF742FC824605E0FFF73EFCA0EB0A0173
:1016D00059454CD8286A8007F6D41FB1E86920F034
:1016E0008050E861E06988B36968C1F3810102292B
:1016F00044D00228C6F8608004D0FFF725FC0446D9
:1017000038E034E0FFF720FC074604E0FFF71CFC5C
:10171000C01B02282BD828688001F7D4206AB0F5B6
:10172000803F05D16868A16820F4003008436860F4
:10173000D4E908010843696821F47411084368601A
:10174000C6F86090FFF700FC044606E025E000BF05
:10175000FFF7FAFB001B022809D828688001F7D59B
:101760001BE000BFFFF7F0FB001B022802D903209B
:10177000BDE8F88F28688001F4D40EE00128F7D086
:101780006868226A00F48031914204D1616A00F4F1
:101790007010884201D00120EAE70020E8E700004D
:1017A000001002400000424280044242000000203B
:1017B0000070004070B515460E46040003D094F842
:1017C000410010B107E0012070BD002084F8400006
:1017D000204600F01DF804F108012068FFF702F828
:1017E0003146A2682068FFF731F8D4E901022946A2
:1017F000236BFEF7D9FF2168A06851F8202042F042
:10180000010241F82020012084F84100002070BD31
:101810001FB54CF23370009002200190032003901A
:1018200069460948FFF78AFA4FF6807000906946CA
:101830000648FFF783FA41F2010000906946044828
:10184000FFF77CFA1FBD00000014014000180140A2
:101850000020014010B5401EB0F1807F01D301206F
:1018600010BD4FF0E02460610F21601704F0DEF836
:101870000020A06107202061002010BD7047704744
:1018800010B5040003D094F83D0010B107E001202A
:1018900010BD002084F83C00204600F00CF8022027
:1018A00084F83D00211D206803F074FF012084F8B6
:1018B0003D00002010BD7047022180F83D100168F6
:1018C0008A6802F00702062A03D00A6842F0010281
:1018D0000A60012180F83D10002070470168CA6845
:1018E00042F00102CA600068816801F00701062920
:1018F00003D0016841F0010101600020704770478A
:1019000070B50446006801694FF00005C9438907B6
:1019100015D4C168C943890711D4E91E01610120AA
:101920002077206880698007204602D0FFF7E7FF14
:1019300004E000F098F8204600F096F8257720683B
:101940000169C943490717D4C168C943490713D47A
:101950006FF004010161022020772068806910F493
:10196000407F204602D0FFF7CAFF04E000F07BF87A
:10197000204600F079F8257720680169C9430907F6
:1019800016D4C168C943090712D46FF00801016178
:10199000042020772068C0698007204602D0FFF726
:1019A000AEFF04E000F05FF8204600F05DF8257718
:1019B00020680169C943C90617D4C168C943C9066B
:1019C00013D46FF010010161082020772068C069EE
:1019D00010F4407F204602D0FFF791FF04E000F0B2
:1019E00042F8204600F040F8257720680169C94395
:1019F000C90708D1C168C943C90704D1891E01615B
:101A0000204600F032F820680169C943090609D46C
:101A1000C168C943090605D46FF080010161204601
:101A2000FFF72CFF20680169C943490609D4C16842
:101A3000C943490605D46FF040010161204600F01A
:101A400016F820680169C94389060BD4C168C943E7
:101A5000890607D46FF0200101612046BDE870407F
:101A6000FFF70DBF70BD7047704700F00DB97047AC
:101A700070B5040004D094F83900002510B106E0D8
:101A8000012070BD84F83850204600F023F824204F
:101A900084F839002068C16821F40051C1602046F3
:101AA00003F008FF2068016921F49041016120687A
:101AB000416921F02A0141612068C16841F4005167
:101AC000C160E563202084F8390084F83A000020E2
:101AD00070BD00001F4810B5816986B041F0040157
:101AE0008161816901F004010491816941F004017F
:101AF0008161816901F004010491816941F48041AF
:101B000081618069144C00F4804004904FF40070AF
:101B1000009002200190012002900320039069466A
:101B20002046FFF70BF92015009069462046FFF785
:101B300005F9201D016821F47F610160016841F40D
:101B40003B61016004480C30016841F0060101600E
:101B500006B010BD00100240000801402DE9F84316
:101B6000044690F839001F4616460D46202850D1ED
:101B7000A5B19EB194F8380001284AD0012084F81C
:101B800038004FF00008C4F83C80212084F8390068
:101B9000FFF7DAF9A6848146E68426E00120BDE855
:101BA000F883E08C401EE084A0684B46B0F5805F6F
:101BB0004FF000024FF080012046009703D003F061
:101BC000D5FEE8B90DE003F0D1FEC8B92888216838
:101BD000C0F308004860206908B16D1C05E0AD1C29
:101BE00003E0216815F8010B4860E08C0028D8D18B
:101BF0004B46002240212046009703F0B7FE08B173
:101C00000320CCE7202084F8390084F838800020B5
:101C1000C5E70220C3E7FEE7164808B5C16941F4ED
:101C20000011C161C06900F4001000901248016801
:101C300041F07F41016010480C30016841F0C00163
:101C400001600F480D494FF4804201600D49C0E921
:101C500001120021C0E9031241618161C161016289
:101C6000FFF778F9002803D0BDE80840FEF794BDDF
:101C700008BD000000100240000C0140005400406C
:101C800028010020801A06002DE9F041614C6320F4
:101C9000614FA070012211463846FFF750F95F4DA1
:101CA00010212846FFF746F90126012812D02021ED
:101CB0002846FFF73FF901280ED040212846FFF7BC
:101CC00039F901280AD080212846FFF733F9012885
:101CD00006D007E0A67005E0022002E0032000E045
:101CE0000A20A070002201213846FFF728F90122BE
:101CF00002213846FFF723F910212846FFF71AF989
:101D0000012812D020212846FFF714F901280ED00F
:101D100040212846FFF70EF901280AD080212846E5
:101D2000FFF708F9012806D007E0042004E00520A9
:101D300002E0062000E00B20A070002202213846BD
:101D4000FFF7FDF8012204213846FFF7F8F81021CB
:101D50002846FFF7EFF8012812D020212846FFF788
:101D6000E9F801280ED040212846FFF7E3F80128C2
:101D70000AD080212846FFF7DDF8012806D007E0C9
:101D8000072004E0082002E0092000E00C20A070F9
:101D9000B846002204214046FFF7D1F8012208216D
:101DA0003846FFF7CCF810212F462846FFF7C2F837
:101DB0000025012812D020213846FFF7BBF8012862
:101DC0000ED040213846FFF7B5F801280AD080210F
:101DD0003846FFF7AFF8012806D007E0A57005E008
:101DE0000F2002E00E2000E00D20A070002208214C
:101DF0004046FFF7A4F860780028A07802D0632856
:101E000006D002E0632803D020706670BDE8F08140
:101E10006570FBE70C000020001001400008014045
:101E20002DE9F043174C81460025208866884643FB
:101E3000A088A0F5D041043902D1A079012807D0AB
:101E40000021084603F0E0F903F06AFB0E4814E0B5
:101E50000020A0712A2767814FF02B08A4F80C807E
:101E6000014603F0D1F90120A071A4F80A80A781EE
:101E7000EAE700BFA0F800906D1CB542FAD3BDE8B8
:101E8000F0830000E80000200008006C2DE9F04F0E
:101E900054492A232B24898845F2105A4FF4305B89
:101EA0004FF4285E4FF448754FF0F00849F241397D
:101EB00045F2103649F288474FF4F072C0B14948F4
:101EC0004FF0010C494580F806C04FF4A07CA0F803
:101ED00000C0A0F8028003D0B14201D0B94249D17C
:101EE0002C250581438184810280A0F802C05FE037
:101EF0003C484FF0000C494580F806C0A0F800802F
:101F00004FF4A07CA0F802C008D0A1F5D048B8F1E9
:101F1000040803D0B14201D0B9420FD12C2505816C
:101F20004381A1F5D0438481043B03D0B14201D069
:101F3000B94248D1A0F800C0428044E0514507D1E1
:101F4000A0F808B0A0F80AE04FF42C5181810EE00F
:101F5000A1F5C856633E06D022210181202141818E
:101F6000212181812FE02C21018144818381028004
:101F7000458028E0A1F5D048B8F1040809D05145C2
:101F80000BD1A0F808B0A0F80AE04FF42C538381DD
:101F900024E02C250581448109E0A1F5C858B8F159
:101FA000630815D0222303812123438120238381C9
:101FB000A1F5D043043B03D0B14201D0B94202D1D4
:101FC0000280A0F802C0BDE8F04F002003F044B842
:101FD0004FF02C08A0F8088043818481058042805E
:101FE000E6E70000E80000202DE9F74FDFF82CB10C
:101FF0000C460146050A5846BBF80460DFF820A1EC
:102000008389220A4089A6F513470AF10209413F54
:1020100023D0A6F5A04CBCF5447C1ED0A6F5A04C60
:10202000BCF5A26C24D05F46A6F5C85C97F8068084
:102030003F887F1A7F1EBCF1630C2ED0A6F5D04CD2
:10204000BCF1040C32D0A6F5104CBCF5916C3DD01F
:102050005B46B8F1010F51D051E0AAF800004846A4
:10206000A9F80050C9B2A9F80010AAF8003041E060
:10207000AAF80000A9F80050401CAAF80000C8B255
:10208000A9F80000AAF80030A9F800205B1CAAF803
:102090000030E0B2A9F8000037E0B8F1000F00D13D
:1020A000B9B25646AAF800000D0A12E0B8F1010FC5
:1020B00000D1B9B2AAF800000E0A4846A9F800609B
:1020C000C9B2A9F80010AAF8003013E05646AAF8E1
:1020D00000004846A9F80050CFB2A9F80070A9F84E
:1020E0000050C9B2A9F800103380A9F80020E1B26D
:1020F000A9F800100280E1B2018006E0B9B203F055
:1021000019FA9889214603F015FABBF80810AAF8C5
:1021100000100298A9F80000BDE8FE8FE80000203A
:10212000FE07006C2DE9F04FFE488FB0416941F485
:1021300080714161FC494FF0204006220860FB4855
:10214000C1E9010200201023C860C1E904038861CD
:10215000C86248621B028B62C8619B00C1E90C30F7
:1021600088631A21CDE90801032107920D90CDE97A
:102170000010CDE9022006906A4607A9EA48FFF759
:1021800019FB3220FEF7BAFD002002F03BFFE64DBE
:10219000E74C483549F24137A88049F2884946F66C
:1021A000040A45F2103B45F210564FF6FF78FF281F
:1021B00004D3404502D0B0F5134F72D1D320208014
:1021C00002F016FFA88002F013FFA88002F010FFB3
:1021D00008EA00204146A88002F00AFFAA881043BE
:1021E000A880B8425DD048455BD0BF20208002F077
:1021F000FFFEA88002F0FCFEA88002F0F9FEA88095
:1022000002F0F6FE01EA0020A88002F0F1FEAA88A2
:102210001043A880504544D0D420208002F0E8FE2E
:10222000A88002F0E5FEA88002F0E2FE01EA0020AC
:10223000A88002F0DDFEAA881043A880584530D05F
:102240004FF45A40208002F0D3FEA8804FF45B4048
:10225000208002F0CDFE01EA0020A8804FF45C400F
:10226000208002F0C5FEAA881043A880B0F5004F78
:102270007ED0B04215D0A120208002F0B9FEA88007
:1022800002F0B6FE01EA0020A88002F0B1FEA988A3
:102290000843A0F5AE41A880613902D141F6631030
:1022A000A880A988A3A003F0B1FBA888A04DAD1C0D
:1022B000B8427DD1CF20208000202880C1202880F6
:1022C00030202880ED202080642028800320288072
:1022D0001220288081202880E820208085202880E6
:1022E000102028807A202880CB2020803920288048
:1022F0002C2028800020288034202880022028805C
:10230000F720208020202880EA20208000202880BC
:102310002880C02020801B202880C1202080012010
:102320002880C5202080302028802880C720208059
:10233000B720288036202080482028803A2020801E
:1023400055202880B1202080002028801A20288055
:10235000B62020800A202880A2202880F220208019
:10236000002028802620208001202880E02000E016
:102370004DE020800F2028802A20288028202880D7
:10238000082028800E2028800820288054202880BB
:10239000A9202880432028800A2028800F20288018
:1023A00000202880288028802880E120208000E0EC
:1023B0002FE0002028801520288017202880072063
:1023C000288011202880062028802B202880562055
:1023D00028803C20288005202880102028800F207D
:1023E00028803F20288028800F2028802B202080D4
:1023F000002028802880012028803F2028802A2053
:1024000020800020288028802880EF2086E0AE8071
:1024100047E748457ED1F7202080A9202880512019
:1024200028802C20288082202880C0202080112015
:10243000288009202880C120208041202880C520B4
:102440002080002028800A20288080202880B12039
:102450002080B020288011202880B42020800220F5
:102460002880B62020800220288022202880B720C3
:102470002080C6202880BE202080002028800420C4
:102480002880E92020800020288036202080082015
:1024900028803A20208055202880E02020800020BD
:1024A00028800720288010202880092028801720D5
:1024B00028800B20288041202880892028804B20DC
:1024C00028800A2028800C2028800E2028801820B0
:1024D00028801B2028800F202880E12020800020D9
:1024E0002880172028801A202880042028800E2089
:1024F0002880062028802F202880452028804320FF
:102500002880022028800A20288009202880322064
:10251000288000E016E0362028800F202880112037
:1025200020807CE000100240A0000020040100A0F8
:10253000FE07006C204C43442049443A25780D0A9C
:1025400000000000504571D1112020801420FEF7BA
:10255000D5FBD020208007202880422028801D2005
:102560002880D1202080002028801A20288009205F
:102570002880D22020800120288022202880C0208E
:102580002080102028803B202880002028800220E6
:10259000288011202880C520208003202880C82082
:1025A00020800020288025202880212028800520C8
:1025B0002880002028800A20288065202880252067
:1025C000288077202880502028800F202880002015
:1025D0002880F820208001202880FE2020800020F4
:1025E000288002202880202020803620208008207B
:1025F00028803A202080552028802B202080002011
:1026000028802880012028803F2028802A202080C0
:1026100000202880288001202880DF202880782042
:10262000FEF76CFB292001F02EBCFFE758457DD159
:10263000ED20208001202880FE202880EE202080B0
:10264000DE20288021202880F12020800120288081
:10265000DF20208010202880C42020808F20288028
:10266000C620208000202880E22028802880288022
:10267000BF202080AA202880B02020800D20288024
:10268000002028800D20288000202880112028800C
:1026900000202880192028800020288021202880E0
:1026A000002028802D202880002028803D202880A0
:1026B000002028805D202880002028805D20288040
:1026C00000202880B12020808020288000202880C1
:1026D0008B202880002028809620288000202880B9
:1026E000B22020800020288028800220288000201E
:1026F00028800320288000202880B320208000200C
:102700002880288028802880288028802880288089
:102710002880288028802880288028802880288079
:102720002880288028802880288000E0FEE32880F8
:1027300028802880B42020808B20288000202880BA
:102740009620288000202880A12028800020288032
:10275000B5202080022028800020288003202880A7
:10276000002028800420288000202880B620208097
:10277000002028802880B720208000202880288002
:102780003F202880002028805E202880002028808C
:1027900064202880002028808C2028800020288029
:1027A000AC20288000202880DC2028800020288081
:1027B00070202880002028809020288000202880F9
:1027C000EB20288000202880DC2028800020288022
:1027D000B820208000202880288028802880288019
:1027E000288028802880BA2020802420288000206B
:1027F000288028802880C120208020202880002058
:1028000028805420288000202880FF202880002055
:102810002880C22020800A202880002028800420D0
:10282000288000202880C32020803C202880002091
:1028300028803A2028800020288039202880002005
:10284000288037202880002028803C2028800020F5
:1028500028803620288000202880322028800020F0
:1028600028802F202880002028802C2028800020ED
:1028700028802920288000202880262028800020E9
:1028800028802420288000202880242028800020E0
:10289000288023202880002028803C2028800020B9
:1028A00028803620288000202880322028800020A0
:1028B00028802F202880002028802C20288000209D
:1028C0002880292028800020288026202880002099
:1028D0002880242028800020288024202880002090
:1028E00028802320288000202880C4202080622087
:1028F000288000202880052028800020288084202F
:10290000288000202880F02028800020288018209F
:10291000288000202880A4202880002028801820DB
:1029200028800020288050202880002028800C202B
:1029300028800020288017202880002028809520CB
:10294000288000202880F320288000202880E6208E
:10295000288000202880C520208032202880002068
:10296000288044202880002028806520288000209E
:102970002880762028800020288088202880002039
:102980002880C62020802020288000202880172032
:102990002880002028800120288000202880C7204F
:1029A000208000202880288028802880C82020803F
:1029B00000202880288028802880C92020800020AE
:1029C00028802880288028802880288028802880C7
:1029D00028802880288028802880288028802880B7
:1029E000E020208016202880002028801C202880BD
:1029F0000020288021202880002028803620288060
:102A0000002028804620288000202880522028800E
:102A10000020288064202880002028807A202880B8
:102A2000002028808B202880002028809920288062
:102A300000202880A820288000202880B920288015
:102A400000202880C420288000202880CA202880D8
:102A500000202880D220288000202880D9202880AB
:102A600000202880E020288000202880F320288073
:102A700000202880E1202080162028800020288047
:102A80001C202880002028802220288000202880E8
:102A9000362028800020288045202880002028809B
:102AA0005220288000202880642028800020288050
:102AB0007A202880002028808B20288000202880F1
:102AC0009920288000202880A820288000202880A5
:102AD000B920288000202880C42028800020288059
:102AE000CA20288000202880D2202880002028802A
:102AF000D820288000202880E020288000202880FE
:102B0000F320288000202880E220208005202880D3
:102B1000002028800B202880002028801B2028806F
:102B2000002028803420288000202880442028800D
:102B3000002028804F2028800020288061202880C5
:102B40000020288079202880002028808820288064
:102B5000002028809720288000202880A620288018
:102B600000202880B720288000202880C2202880CC
:102B700000202880C720288000202880D12028809D
:102B800000202880D620288000202880DD20288072
:102B900000202880F320288000202880E320208047
:102BA00005202880002028800A20288000202880F6
:102BB0001C202880002028803320288000202880A6
:102BC0004420288000202880502028800020288051
:102BD00062202880002028807820288000202880FB
:102BE00088202880002028809720288000202880A6
:102BF000A620288000202880B72028800020288058
:102C0000C220288000202880C7202880002028801B
:102C1000D120288000202880D520288000202880EE
:102C2000DD20288000202880F320288000202880B4
:102C3000E420208001202880002028800120288096
:102C40000020288002202880002028802A20288038
:102C5000002028803C202880002028804B202880CD
:102C6000002028805D202880002028807420288073
:102C7000002028808420288000202880932028801D
:102C800000202880A220288000202880B3202880CF
:102C900000202880BE20288000202880C420288092
:102CA00000202880CD20288000202880D320288064
:102CB00000202880DD20288000202880F320288024
:102CC00000202880E520208000202880288028807F
:102CD00028800220288000202880292028800020A9
:102CE00028803C202880002028804B20288000203D
:102CF00028805D20288000202880742028800020E3
:102D0000288084202880002028809320288000208C
:102D10002880A220288000202880B320288000203E
:102D20002880BE20288000202880C4202880002001
:102D30002880CD20288000202880D32028800020D3
:102D40002880DC20288000202880F3202880002094
:102D50002880E62020801120288000202880342030
:102D60002880002028805620288000202880762077
:102D70002880002028807720288000202880662056
:102D80002880002028808820288000202880992002
:102D9000288000202880BB202880002028809920BF
:102DA0002880002028806620288000202880552048
:102DB0002880002028805520288000202880452059
:102DC000288000202880432028800020288044205C
:102DD000288000202880E7202080322028800020C2
:102DE00028805520288000202880762028800020F8
:102DF00028806620288000202880672028800020E6
:102E000028806720288000202880872028800020B4
:102E100028809920288000202880BB20288000203E
:102E20002880992028800020288077202880002072
:102E300028804420288000202880562028800020D8
:102E4000288023202880002028803320288000200C
:102E500028804520288000202880E820208000202D
:102E6000288028809920288000202880872028809A
:102E70000020288088202880002028807720288033
:102E80000020288066202880002028808820288034
:102E900000202880AA20288000202880BB202880AD
:102EA0000020288099202880002028806620288003
:102EB0000020288055202880002028805520288048
:102EC000002028804420288000202880442028805A
:102ED000002028805520288000202880E92020809C
:102EE000AA20288000202880288028802080AA20EE
:102EF0002880CF20208000202880288028802880DB
:102F00002880288028802880288028802880288081
:102F100028802880288028802880F0202080002099
:102F20002880502028800020288000E02CE0288085
:102F30002880F320208000202880F920208006208F
:102F400028801020288029202880002028803A20EE
:102F5000208055202880112020806420FDF7CEFE9F
:102F600029202080352020800020288051202080AA
:102F7000FF202880532020802C202880552020806E
:102F8000822028802C20FCE3B0427DD14FF4704396
:102F90005521184602F0CEFA4FF20105AA21284623
:102FA00002F0C8FA6E1C5221304602F0C3FAAF1C80
:102FB0000821384602F0BEFA4FF2040901214846C2
:102FC00002F0B8FA0D214FF4304002F0B3FA0D21AF
:102FD0004BF2010002F0AEFA0D214BF2020002F0BA
:102FE000A9FA4FF4364A3421504602F0A3FA3421AC
:102FF0004BF2016002F09EFA34214BF2026002F0C3
:1030000099FA4FF4314B0D21584602F093FA0D21F5
:103010004BF2011002F08EFA0D214BF2021002F079
:1030200089FA34214FF4374002F084FA34214BF20C
:10303000017002F07FFA34214BF2027002F07AFA4A
:1030400000214FF4324002F075FA00214BF20120CA
:1030500002F070FA00214BF2022002F06BFA2421F8
:103060004FF4384002F066FA24214BF6010002F0DA
:1030700061FA24214BF6020002F05CFA01214FF4C0
:103080003F4002F057FA00E0FEE30F214FF43340D7
:1030900002F050FA0F214BF2013002F04BFA0F21EF
:1030A0004BF2023002F046FA34214FF4394002F07C
:1030B00041FA34214BF6011002F03CFA34214BF670
:1030C000021002F037FA08214FF4354002F032FACC
:1030D00008214BF2015002F02DFA08214BF2025068
:1030E00002F028FA03214FF4424002F023FA24218F
:1030F0004FF43A4002F01EFA24214BF6012002F070
:1031000019FA24214BF6022002F014FA00214FF4A0
:103110003C4002F00FFA78214BF6014002F00AFA27
:1031200000214BF6024002F005FA00214FF43D4029
:1031300002F000FA78214BF6015002F0FBF9002171
:103140004BF6025002F0F6F900214FF43E4002F037
:10315000F1F964214BF6016002F0ECF900214FF423
:10316000514002F0E7F933214DF2011002F0E2F98B
:1031700000214DF2021002F0DDF934214DF203106E
:1031800002F0D8F900214DF2041002F0D3F93A21EF
:103190004DF2051002F0CEF900214DF2061002F0BA
:1031A000C9F94A214DF2071002F0C4F900214DF28D
:1031B000081002F0BFF95C214DF2091002F0BAF9D3
:1031C00000214DF20A1002F0B5F981214DF20B10E9
:1031D00002F0B0F900214DF20C1002F0ABF9A6217B
:1031E0004DF20D1002F0A6F900214DF20E1002F082
:1031F000A1F9E5214DF20F1002F09CF901214DF2E9
:10320000101002F097F913214DF2111002F092F90B
:1032100001214DF2121002F08DF954214DF21310DC
:1032200002F088F901214DF2141002F083F9822195
:103230004DF2151002F07EF901214DF2161002F048
:1032400079F9CA214DF2171002F074F902214DF2FA
:10325000181002F06FF900214DF2191002F06AF90E
:1032600002214DF21A1002F065F901214DF21B10F6
:1032700002F060F902214DF21C1002F05BF93421DA
:103280004DF21D1002F056F902214DF21E1002F00F
:1032900051F967214DF21F1002F04CF902214DF255
:1032A000201002F047F984214DF2211002F042F97A
:1032B00002214DF2221002F03DF9A4214DF223101B
:1032C00002F038F902214DF2241002F033F9B7214F
:1032D0004DF2251002F02EF902214DF2261002F0D7
:1032E00029F9CF214DF2271002F024F902214DF2E5
:1032F000281002F01FF9DE214DF2291002F01AF910
:1033000002214DF22A1002F015F9F2214DF22B1094
:1033100002F010F902214DF22C1002F00BF9FE21FF
:103320004DF22D1002F006F903214DF22E1002F09D
:1033300001F910214DF22F1002F0FCF803214DF29B
:10334000301002F0F7F833214DF2311002F0F2F8AC
:1033500003214DF2321002F0EDF86D214DF23310E1
:1033600002F0E8F800214FF4524002F0E3F8332174
:103370004DF2012002F0DEF800214DF2022002F0B1
:10338000D9F834214DF2032002F0D4F800214DF297
:10339000042002F0CFF83A214DF2052002F0CAF8DD
:1033A00000214DF2062002F0C5F84A214DF2072017
:1033B00002F0C0F800214DF2082002F0BBF85C21B9
:1033C0004DF2092002F0B6F800214DF20A2002F079
:1033D000B1F881214DF20B2002F0ACF800214DF242
:1033E0000C2002F0A7F8A6214DF20D2002F0A2F861
:1033F00000214DF20E2002F09DF8E5214DF20F2044
:1034000002F098F801214DF2102002F093F81321F8
:103410004DF2112002F08EF801214DF2122002F03F
:1034200089F854214DF2132002F084F801214DF265
:10343000142002F07FF882214DF2152002F07AF874
:1034400001214DF2162002F075F8CA214DF2172025
:1034500002F070F802214DF2182002F06BF8002102
:103460004DF2192002F066F802214DF21A2002F006
:1034700061F801214DF21B2002F05CF802214DF2AF
:103480001C2002F057F834214DF21D2002F052F8B2
:1034900002214DF21E2002F04DF867214DF21F204F
:1034A00002F048F802214DF2202002F043F8842176
:1034B0004DF2212002F03EF802214DF2222002F0CE
:1034C00039F8A4214DF2232002F034F802214DF204
:1034D000242002F02FF8B7214DF2252002F02AF81F
:1034E00002214DF2262002F025F8CF214DF22720AF
:1034F00002F020F802214DF2282002F01BF8DE2114
:103500004DF2292002F016F802214DF22A2002F095
:1035100011F8F2214DF22B2002F00CF802214DF2AD
:103520002C2002F007F8FE214DF22D2002F002F8C7
:1035300003214DF22E2001F0FDFF10214DF22F202E
:1035400001F0F8FF03214DF2302001F0F3FF3321A9
:103550004DF2312001F0EEFF03214DF2322001F057
:10356000E9FF6D214DF2332001F0E4FF00214FF41B
:10357000534001F0DFFF33214DF2013001F0DAFF5B
:1035800000214DF2023001F0D5FF34214DF203301D
:1035900001F0D0FF00214DF2043001F0CBFF3A21C1
:1035A0004DF2053001F0C6FF00214DF2063001F06A
:1035B000C1FF4A214DF2073001F0BCFF00214DF25E
:1035C000083001F0B7FF5C214DF2093001F0B2FF85
:1035D00000214DF20A3001F0ADFF81214DF20B3098
:1035E00001F0A8FF00214DF20C3001F0A3FFA6214D
:1035F0004DF20D3001F09EFF00214DF20E3001F032
:1036000099FFE5214DF20F3001F094FF01214DF2B9
:10361000103001F08FFF13214DF2113001F08AFFBD
:1036200001214DF2123001F085FF54214DF213308B
:1036300001F080FF01214DF2143001F07BFF822167
:103640004DF2153001F076FF01214DF2163001F0F8
:1036500071FFCA214DF2173001F06CFF02214DF2CB
:10366000183001F067FF00214DF2193001F062FFC0
:1036700002214DF21A3001F05DFF01214DF21B30A5
:1036800001F058FF02214DF21C3001F053FF3421AC
:103690004DF21D3001F04EFF02214DF21E3001F0BF
:1036A00049FF67214DF21F3001F044FF02214DF226
:1036B000203001F03FFF84214DF2213001F03AFF2C
:1036C00002214DF2223001F035FFA4214DF22330CA
:1036D00001F030FF02214DF2243001F02BFFB72121
:1036E0004DF2253001F026FF02214DF2263001F087
:1036F00021FFCF214DF2273001F01CFF02214DF2B6
:10370000283001F017FFDE214DF2293001F012FFC1
:1037100002214DF22A3001F00DFFF2214DF22B3043
:1037200001F008FF02214DF22C3001F003FFFE21D1
:103730004DF22D3001F0FEFE03214DF22E3001F04E
:10374000F9FE10214DF22F3001F0F4FE03214DF26D
:10375000303001F0EFFE33214DF2313001F0EAFE5E
:1037600003214DF2323001F0E5FE6D214DF2333090
:1037700001F0E0FE00214FF4544001F0DBFE332164
:1037800000E080E34DF2014001F0D4FE00214DF253
:10379000024001F0CFFE34214DF2034001F0CAFE99
:1037A00000214DF2044001F0C5FE3A214DF20540E2
:1037B00001F0C0FE00214DF2064001F0BBFE4A219F
:1037C0004DF2074001F0B6FE00214DF2084001F035
:1037D000B1FE5C214DF2094001F0ACFE00214DF23A
:1037E0000A4001F0A7FE81214DF20B4001F0A2FE3C
:1037F00000214DF20C4001F09DFEA6214DF20D403E
:1038000001F098FE00214DF20E4001F093FEE521FB
:103810004DF20F4001F08EFE01214DF2104001F0FB
:1038200089FE13214DF2114001F084FE01214DF279
:10383000124001F07FFE54214DF2134001F07AFE58
:1038400001214DF2144001F075FE82214DF2154028
:1038500001F070FE01214DF2164001F06BFECA210D
:103860004DF2174001F066FE02214DF2184001F0C2
:1038700061FE00214DF2194001F05CFE02214DF283
:103880001A4001F057FE00E0FFE201214DF21B401B
:1038900001F050FE02214DF21C4001F04BFE34219C
:1038A0004DF21D4001F046FE02214DF21E4001F096
:1038B00041FE67214DF21F4001F03CFE02214DF216
:1038C000204001F037FE84214DF2214001F032FE0C
:1038D00002214DF2224001F02DFEA4214DF22340A1
:1038E00001F028FE02214DF2244001F023FEB72111
:1038F0004DF2254001F01EFE02214DF2264001F05E
:1039000019FECF214DF2274001F014FE02214DF2A5
:10391000284001F00FFEDE214DF2294001F00AFEA1
:1039200002214DF22A4001F005FEF2214DF22B401A
:1039300001F000FE02214DF22C4001F0FBFDFE21C2
:103940004DF22D4001F0F6FD03214DF22E4001F025
:10395000F1FD10214DF22F4001F0ECFD03214DF25D
:10396000304001F0E7FD33214DF2314001F0E2FD3E
:1039700003214DF2324001F0DDFD6D214DF2334067
:1039800001F0D8FD00214FF4554001F0D3FD332163
:103990004DF2015001F0CEFD00214DF2025001F038
:1039A000C9FD34214DF2035001F0C4FD00214DF258
:1039B000045001F0BFFD3A214DF2055001F0BAFD6F
:1039C00000214DF2065001F0B5FD4A214DF207509D
:1039D00001F0B0FD00214DF2085001F0ABFD5C217B
:1039E0004DF2095001F0A6FD00214DF20A5001F000
:1039F000A1FD81214DF20B5001F09CFD00214DF203
:103A00000C5001F097FDA6214DF20D5001F092FDF2
:103A100000214DF20E5001F08DFDE5214DF20F50C9
:103A200001F088FD01214DF2105001F083FD1321BA
:103A30004DF2115001F07EFD01214DF2125001F0C6
:103A400079FD54214DF2135001F074FD01214DF226
:103A5000145001F06FFD82214DF2155001F06AFD06
:103A600001214DF2165001F065FDCA214DF21750AB
:103A700001F060FD02214DF2185001F05BFD0021C4
:103A80004DF2195001F056FD02214DF21A5001F08D
:103A900051FD01214DF21B5001F04CFD02214DF270
:103AA0001C5001F047FD34214DF21D5001F042FD44
:103AB00002214DF21E5001F03DFD67214DF21F50D5
:103AC00001F038FD02214DF2205001F033FD842138
:103AD0004DF2215001F02EFD02214DF2225001F055
:103AE00029FDA4214DF2235001F024FD02214DF2C5
:103AF000245001F01FFDB7214DF2255001F01AFDB1
:103B000002214DF2265001F015FDCF214DF2275034
:103B100001F010FD02214DF2285001F00BFDDE21D5
:103B20004DF2295001F006FD02214DF22A5001F01C
:103B300001FDF2214DF22B5001F0FCFC02214DF26F
:103B40002C5001F0F7FCFE214DF22D5001F0F2FC5B
:103B500003214DF22E5001F0EDFC10214DF22F50BB
:103B600001F0E8FC03214DF2305001F0E3FC332179
:103B70004DF2315001F0DEFC03214DF2325001F0E4
:103B8000D9FC6D214DF2335001F0D4FC00214FF4EB
:103B9000564001F0CFFC33214DF2016001F0CAFC28
:103BA00000214DF2026001F0C5FC34214DF20360AA
:103BB00001F0C0FC00214DF2046001F0BBFC3A2191
:103BC0004DF2056001F0B6FC00214DF2066001F0F7
:103BD000B1FC4A214DF2076001F0ACFC00214DF22E
:103BE000086001F0A7FC5C214DF2096001F0A2FC25
:103BF00000214DF20A6001F09DFC81214DF20B6025
:103C000001F098FC00214DF20C6001F093FCA6211C
:103C10004DF20D6001F08EFC00214DF20E6001F0BE
:103C200089FCE5214DF20F6001F084FC01214DF289
:103C3000106001F07FFC13214DF2116001F07AFC5D
:103C400001214DF2126001F075FC54214DF2136018
:103C500001F070FC01214DF2146001F06BFC822137
:103C60004DF2156001F066FC01214DF2166001F085
:103C700061FCCA214DF2176001F05CFC02214DF29B
:103C8000186001F057FC00214DF2196001F052FC60
:103C900002214DF21A6001F04DFC01214DF21B6032
:103CA00001F048FC02214DF21C6001F043FC34217C
:103CB0004DF21D6001F03EFC02214DF21E6001F04C
:103CC00039FC67214DF21F6001F034FC02214DF2F6
:103CD000206001F02FFC84214DF2216001F02AFCCC
:103CE00002214DF2226001F025FCA4214DF2236057
:103CF00001F020FC02214DF2246001F01BFCB721F1
:103D00004DF2256001F016FC02214DF2266001F013
:103D100011FCCF214DF2276001F00CFC02214DF285
:103D2000286001F007FCDE214DF2296001F002FC61
:103D300002214DF22A6001F0FDFBF2214DF22B60D1
:103D400001F0F8FB02214DF22C6001F0F3FBFE21A3
:103D50004DF22D6001F0EEFB03214DF22E6001F0DB
:103D6000E9FB10214DF22F6001F0E4FB03214DF23D
:103D7000306001F0DFFB33214DF2316001F0DAFBFE
:103D800003214DF2326001F0D5FB6D214DF233601D
:103D900001F0D0FB5521184601F0CCFBAA212846A2
:103DA00001F0C8FB5221304601F0C4FB082138461F
:103DB00001F0C0FB0021484601F0BCFBCC21584675
:103DC00001F0B8FB00214BF2011001F0B3FB05211B
:103DD000504601F0AFFB70214FF4374001F0AAFBD1
:103DE00070214BF2017001F0A5FB01214FF4384026
:103DF00001F0A0FB03214BF6010001F09BFB032126
:103E00004BF6020001F096FB03214BF6030001F094
:103E100091FB02214FF43C4001F08CFB00214BF65A
:103E2000014001F087FB00214BF6024001F082FBCC
:103E3000D0214FF4494001F07DFB02214CF60110E6
:103E400001F078FB50214CF6021001F073FB502179
:103E50004CF6031001F06EFB50214CF6041001F0FB
:103E600069FB00214FF4545001F064FB55214FF4DD
:103E7000685001F05FFB4FF488502080782002F0FA
:103E800027F84FF424502080FEE3A0F513414FF4AF
:103E900080764FF4E06940F2022B4FF4274A25392F
:103EA0002ED0A0F5134140F2077728397ED0A0F537
:103EB00013414FF4887A203979D0A0F51341313974
:103EC00076D0A0F5A841083973D0A0F5A8514FF4D9
:103ED000407A05396ED0A0F5354105396BD0A0F593
:103EE0004541053968D0A0F58A4131397ED0A0F529
:103EF0008A4135397BD0A0F5C851633978D0C3E702
:103F000047F6F001E52001F015FB3146012001F0F4
:103F100011FB4946022001F00DFB41F23001032064
:103F200001F008FB0021042001F004FB59460820A1
:103F300001F000FB0021092001F0FCFA00210A2019
:103F400001F0F8FA00210C2001F0F4FA00210D2014
:103F500001F0F0FA00210F2001F0ECFA002110200E
:103F600001F0E8FA0721112001F0E4FA0021122003
:103F700001F0E0FA0021132001F0DCFA0021072013
:103F800001F0D8FA41F29061102001F0D3FA40F22A
:103F90002721112001F0CEFA9D21122001F0CAFA4A
:103FA0004FF4C851132001F0C5FA06E080E03CE16F
:103FB000E1E1B7E253E3FDE3FDE32521292001F030
:103FC000B9FA0D212B2001F0B5FA0721302001F0BC
:103FD000B1FA40F20331312001F0ACFA0321322072
:103FE00001F0A8FA40F20621352002E0FEE3FEE3EC
:103FF000FEE301F09FFA0821362001F09BFA40F21F
:104000000641372001F096FA4FF44171382001F053
:1040100091FA0721392001F08DFA40F202613C202B
:1040200001F088FA08213D2001F084FA0021502097
:1040300001F080FAEF21512001F07CFA002152209A
:1040400001F078FA40F23F11532001F073FA514623
:10405000602001F06FFA0121612001F06BFA00216C
:104060006A2001F067FA0021802001F063FA002144
:10407000812001F05FFA0021822001F05BFA00212B
:10408000832001F057FA0021842001F053FA002127
:10409000852001F04FFA1021902001F04BFA4FF4E7
:1040A000C061922001F046FA40F233110720FDE38F
:1040B00041F28F01EC2001F03DFA41F23421EF2072
:1040C00001F038FA3146012001F034FA4946022065
:1040D00001F030FA41F23001032001F02BFA002107
:1040E000042001F027FA5946082001F023FA0021A4
:1040F000092001F01FFA00210A2001F01BFA01211A
:104100000C2001F017FA00210D2001F013FA002114
:104110000F2001F00FFA0021102001F00BFA072107
:10412000112001F007FA0021122001F003FA00210A
:10413000132001F0FFF90121072001F0FBF93220E3
:10414000FCF7DCFD41F29041102001F0F3F940F260
:104150002721112001F0EEF93220FCF7CFFD8A2152
:10416000122001F0E7F93220FCF7C8FD4FF4D051DE
:10417000132001F0DFF90621292001F0DBF90D21E0
:104180002B2001F0D7F93220FCF7B8FD00212020C8
:1041900001F0D0F90021212001F0CCF93220FCF708
:1041A000ADFD0021302001F0C5F940F2046131205D
:1041B00001F0C0F940F20531322001F0BBF90021D5
:1041C000352001F0B7F940F60941362001F0B2F987
:1041D0004FF40171372001F0ADF940F20131382080
:1041E00001F0A8F93946392001F0A4F900213C205A
:1041F00001F0A0F940F60A213D2001F09BF93220A0
:10420000FCF77CFD0021502001F094F9EF215120B2
:1042100001F090F90021522001F08CF940F23F1199
:10422000532001F087F9514651E10021084601F081
:1042300081F93146012001F07DF94946022001F063
:1042400079F941F23001032001F074F900210420D2
:1042500001F070F95946082001F06CF9002109209D
:1042600001F068F900210A2001F064F901210C2015
:1042700001F060F900210D2001F05CF900210F2010
:1042800001F058F93220FCF739FD40F20111072006
:1042900001F050F93220FCF731FD4FF48651102027
:1042A00001F048F90721112001F044F95346514625
:1042B000122001F03FF94FF43061132001F03AF978
:1042C0000021292001F036F944F210012B2001F0E1
:1042D00031F90021502001F02DF9EF21512001F09A
:1042E00029F90021522001F025F940F23F11532015
:1042F00001F020F94FF41C51602001F01BF901215D
:10430000612001F017F900216A2001F013F9002162
:10431000802001F00FF90021812001F00BF900212C
:10432000822001F007F90021832001F003F9002128
:10433000842001F0FFF80021852001F0FBF8102116
:10434000902001F0F7F80021922001F0F3F801210C
:10435000932001F0EFF81946952001F0EBF80021C9
:10436000972001F0E7F80021982001F0E3F840F2EF
:104370007311072086E341F21401E72001F0DAF817
:104380003146012001F0D6F84FF40071022001F00F
:10439000D1F841F23801032001F0CCF85946082049
:1043A00001F0C8F80021092001F0C4F800210A201A
:1043B00001F0C0F800210C2001F0BCF800210D2014
:1043C00001F0B8F800210F2001F0B4F8002110200E
:1043D00001F0B0F80721112001F0ACF80021122003
:1043E00001F0A8F80021132001F0A4F8C820FCF780
:1043F00085FC41F29061102001F09CF840F22721E9
:10440000112001F097F83220FCF778FC0C211220E3
:1044100001F090F83220FCF771FC4FF4006113209A
:1044200001F088F81121292001F084F80B212B20BC
:1044300001F080F83220FCF761FC0021202001F01F
:1044400079F840F23F131946212001F073F800215A
:10445000302001F06FF84FF483742146312001F0D1
:1044600069F80021322001F065F84FF40171352020
:1044700001F060F841F20A61362001F05BF839463C
:10448000372001F057F82146382001F053F839461B
:10449000392001F04FF840F202413C2001F04AF887
:1044A00040F60F413D2001F045F80021502001F079
:1044B00041F8EF21512001F03DF80021522001F098
:1044C00039F81946532001F035F84FF41C5160209B
:1044D00001F030F80121612001F02CF800216A2060
:1044E00001F028F80021802001F024F8002181202B
:1044F00001F020F80021822001F01CF80021832027
:1045000001F018F80021842001F014F80021852022
:1045100001F010F81021902001F00CF84FF4C06168
:104520009220FDE33146012001F004F849460220C3
:1045300001F000F841F23001032000F0FBFF002100
:10454000042000F0F7FF40F20721082000F0F2FFFE
:104550000021092000F0EEFF00210A2000F0EAFF10
:1045600000210C2000F0E6FF00210D2000F0E2FF0A
:1045700000210F2000F0DEFF1420FCF7BFFB41F20A
:10458000B061102000F0D6FF0121112000F0D2FF11
:104590000121172000F0CEFF4FF49C71122000F093
:1045A000C9FF4FF40061132000F0C4FF0921292046
:1045B00000F0C0FF09212A2000F0BCFF0021A42048
:1045C00000F0B8FF0021502000F0B4FFEF2151208F
:1045D00000F0B0FF0021522000F0ACFF40F23F118C
:1045E000532000F0A7FF4FF41C51602000F0A2FF01
:1045F0000121612000F09EFF00216A2000F09AFF57
:104600000021802000F096FF0021812000F092FF21
:104610000021822000F08EFF0021832000F08AFF1D
:104620000021842000F086FF0021852000F082FF19
:104630001321902000F07EFF0021922000F07AFFED
:104640000321932000F076FF5146952000F072FF81
:1046500040F27311072000F06DFF322011E10021BC
:10466000072000F067FF3220FCF748FB4FF48E7103
:10467000122000F05FFF0121A42000F05BFF0F215A
:10468000082000F057FF00E07DE308210A2000F039
:1046900051FF08210D2000F04DFF3946302000F079
:1046A00049FF0721312000F045FF40F2036132202D
:1046B00000F040FF4C464946332000F03BFF59468E
:1046C000342000F037FF0221352000F033FF41F69F
:1046D0000F71362000F02EFF3946372000F02AFFF8
:1046E0000021382000F026FF0021392000F022FFB1
:1046F00039463A2000F01EFF00213B2000F01AFF4F
:1047000007213C2000F016FF00213D2000F012FFA1
:104710003220FCF7F3FA0121072000F00BFF012102
:10472000172000F007FF3220FCF7E8FA4FF4BD51E4
:10473000102000F0FFFE40F21721112000F0FAFED9
:104740004FF48F71122000F0F5FE4FF470611320CA
:1047500000F0F0FE00212A2000F0ECFE0A212920C2
:1047600000F0E8FE4FF49F71122000F0E3FE0021FC
:10477000502000F0DFFEEF21512000F0DBFE002191
:10478000522000F0D7FE40F23F11532000F0D2FE3D
:104790004FF41C51602000F0CDFE0121612000F09B
:1047A000C9FE00216A2000F0C5FE0021802000F033
:1047B000C1FE01E068E066E10021812000F0BAFE60
:1047C0000021822000F0B6FE0021832000F0B2FE1E
:1047D0000021842000F0AEFE0021852000F0AAFE1A
:1047E0001321902000F0A6FE514602E015E2CBE234
:1047F00072E3922000F09EFE0521932000F09AFEC5
:104800000021952000F096FE0021972000F092FEF6
:104810000021982000F08EFE3146012000F08AFE33
:104820002146022000F086FE41F23801032000F00C
:1048300081FE0021042000F07DFE00210C2000F00C
:1048400079FE00210F2000F075FE0021202000F0ED
:1048500071FE0021212000F06DFE2121072000F0D3
:1048600069FE1420FCF74AFA6121072000F062FE7D
:104870001420FCF743FA40F27311072000F05AFEAF
:104880001420FCF73BFAA1E30021084600F052FE99
:104890000021084600F04EFE0021084600F04AFEC6
:1048A0000021084600F046FE012100E0E6E0A420D9
:1048B00000F040FE1420FCF721FA4FF41C5421466E
:1048C000602000F037FE5D465946082000F032FEB9
:1048D0004FF40571302000F02DFE43F215713120A8
:1048E00000F028FE40F20461322000F023FE40F682
:1048F0001661332000F01EFE42F21121342000F038
:1049000019FE4FF4A851352000F014FE48F207516B
:10491000362000F00FFE41F20741372000F00AFE7A
:1049200041F20341382000F005FE2021392000F03B
:1049300001FE1A21902000F0FDFD0021102000F062
:10494000F9FD0721112000F0F5FD0021122000F0F3
:10495000F1FD0021132000F0EDFD1420FCF7CEF94D
:104960004FF4E661102000F0E5FD40F23711112010
:1049700000F0E0FD1420FCF7C1F94FF4DC711220C7
:1049800000F0D8FD1420FCF7B9F94FF47061132042
:1049900000F0D0FD80212A2000F0CCFD4821292004
:1049A00000F0C8FD1420FCF7A9F93146012000F001
:1049B000C1FD4946022000F0BDFD41F2380103204F
:1049C00000F0B8FD2946082000F0B4FD00210A20BF
:1049D00000F0B0FD00210C2000F0ACFD00210D2006
:1049E00000F0A8FD30210E2000F0A4FD0021502091
:1049F00000F0A0FDEF21512000F09CFD002152208D
:104A000000F098FD40F23F11532000F093FD214645
:104A1000602000F08FFD0121612000F08BFD00215E
:104A20006A2000F087FD1121902000F083FD4FF4F3
:104A3000C061922000F07EFD40F20241932000F020
:104A400079FD0221942000F075FD1420FCF756F941
:104A50000121072000F06EFD1420FCF74FF96121C1
:104A6000072000F067FD40F27311072000F062FD9F
:104A70000021202000F05EFD0021212000F05AFDE1
:104A8000222100207DE10021084600F053FD002195
:104A9000084600F04FFD1420FCF730F900210846CD
:104AA00000F048FD0021084600F044FD00210846C2
:104AB00000F040FD0021084600F03CFD0121A4204B
:104AC00000F038FD1420FCF719F94FF41C51602058
:104AD00000F030FD40F60601082000F02BFD40F20A
:104AE00003731946302000F025FD0121312000F02C
:104AF00021FD0421322000F01DFD4FF4817133208F
:104B000000F018FD54465146342000F013FD40F2E9
:104B10000311352000F00EFD1F21362000F00AFDA4
:104B20001946372000F006FD0121382000F002FD73
:104B30000421392000F0FEFC1521902000F0FAFC41
:104B40004FF48261102000F0F5FC40F24721112063
:104B500000F0F0FC4FF4DE71122000F0EBFC4FF49B
:104B60006061132000F0E6FC7820FCF7C7F83146BE
:104B7000012000F0DFFC4FF40071022000F0DAFCAD
:104B800041F23001032000F0D5FC08210A2000F09A
:104B9000D1FC00210C2000F0CDFC20210E2000F0E3
:104BA000C9FC00210F2000F0C5FC0021202000F0EE
:104BB000C1FC0021212000F0BDFC3D212A2000F095
:104BC000B9FC1420FCF79AF82D21292000F0B2FC42
:104BD0000021502000F0AEFC4DF2EF01512000F01A
:104BE000A9FC0021522000F0A5FC40F23F11532007
:104BF00000F0A0FC0021612000F09CFC00216A2054
:104C000000F098FC2146922000F094FC05219320AE
:104C100000F090FC3146FFF7ACBB0121002000F012
:104C200089FC0A20FCF76AF841F22861102000F0A4
:104C300081FC0E21122000F07DFC40F6392113206A
:104C400000F078FC0A20FCF759F84021112000F010
:104C500071FC5021152000F06DFC0A20FCF74EF885
:104C60001E21122000F066FC0A20FCF747F84FF4E2
:104C7000B151102000F05EFC42F63921132000F003
:104C800059FC0A20FCF73AF83146012000F052FCAA
:104C90005146022000F04EFC41F23801032000F0A2
:104CA00049FC5946082000F045FC08210A2000F084
:104CB00041FC0021302000F03DFC40F20241312057
:104CC00000F038FC4FF48371322000F033FC40F2E6
:104CD0000351332000F02EFC4FF48271342000F099
:104CE00029FC40F20131352000F024FC3946362001
:104CF00000F020FC40F20531372000F01BFC4FF49F
:104D00000271382000F016FC40F60B71392000F0DB
:104D100011FC0221412000F00DFC4FF41C5100E079
:104D2000D5E0602000F006FC0121612000F002FCCB
:104D30004FF40471902000F0FDFB4FF48571922038
:104D400000F0F8FB0421932000F0F4FB3146A02092
:104D500000F0F0FB0121072000F0ECFB21210720EF
:104D600000F0E8FB2321072000F0E4FB33210720BB
:104D700000F0E0FB40F23311072000F0DBFB0021E4
:104D8000A02000F0D7FB21E13021152000F0D2FB5C
:104D900010219A2000F0CEFB2021112000F0CAFB48
:104DA00043F22841102000F0C5FB0221122000F040
:104DB000C1FB41F23801132000F0BCFB2820FBF7B7
:104DC0009DFF1221084600F0B5FB2820FBF796FF57
:104DD00043F22041102000F0ADFB43F238011320D4
:104DE00000F0A8FB4620FBF789FF0021302000F0EF
:104DF000A1FB40F20241312000F09CFB40F2073160
:104E0000322000F097FB4FF44171332000F092FB09
:104E10000421342000F08EFB40F20141352000F0E7
:104E200089FB3946362000F085FB40F205313720FA
:104E300000F080FB4FF4C2631946382000F07AFB83
:104E40001946392000F076FB3146012000F072FB54
:104E50005146022000F06EFB41F23001032000F0C9
:104E600069FB40F60801082000F064FB08210A20D5
:104E700000F060FB4FF41C51602000F05BFB01214F
:104E8000612000F057FB4FF49F71902000F052FB1F
:104E90003146922000F04EFB3146932000F04AFB51
:104EA0004FF44051A02000F045FB1021A32000F05A
:104EB00041FB0121072000F03DFB2121072000F0EC
:104EC00039FB2321072000F035FB3321072000F0B8
:104ED00031FB40F233119EE6E22020801D20288025
:104EE0000220288004202880642000F0F1FFE020C8
:104EF0002080012028800A20FBF700FFE02020808E
:104F0000032028800C20FBF7F9FE012020800A20D6
:104F1000FBF7F4FEE62020802F202880FF20288049
:104F20002880B02020802020288000202880032096
:104F3000288040F21F3028800120288040F2DF10B6
:104F4000288000202880B42020800420288040F27F
:104F50001F402880002028802E20288000202880C4
:104F6000288028802880B6202080022028804FF4C6
:104F70000370288000202880172028801520288092
:104F8000002028802880F0202080032028802920ED
:104F90002080D020208000202880BE202080052076
:104FA0002880FE202880012028800020288028805A
:104FB0002880B82020800320288001202880BA2063
:104FC000208001202880642000F028F80020FCF7D1
:104FD0005DFF4046FCF724FF0FB0BDE8F08F0246AE
:104FE000012000E05043491EC9B2FBD270470000C7
:104FF000034808B50088ADF80000BDF8000008BD02
:105000000008006C044910B50880052000F060FF1E
:10501000BDE81040FFF7ECBFFE07006C0C4A10B56E
:10502000BE211180941C05212180FBF721F94FF04E
:105030006632084BFBF7AAF8FBF727F9208001201E
:105040002080FF20208000202080208010BD0000D4
:10505000FE07006C66660440F0B5694C00232146EB
:10506000A679898846F6040241F66315012E01D01F
:105070002EB11DE091421BD0A94202D118E0A942F5
:1050800016D1082814D2DFE800F00406080A0C0E36
:10509000101206200CE007200AE0042008E005209A
:1050A00006E0012004E0002002E0032000E00220EE
:1050B000A1F5134C45F2103745F21056BCF1410CE6
:1050C00014D0914212D0B94210D0B1420ED0A942B0
:1050D0000CD0A1F5104CBCF5916C07D008287AD201
:1050E000DFE800F07A7C7E8780828486082812D2EE
:1050F000DFE800F0110406080A0C0E1080230AE015
:10510000402308E0C02306E0202304E0602302E0FF
:10511000A02300E0E023B14202D14FF4585000E058
:105120003620B94205D0B14203D0A94201D043F0A4
:105130000803914201D143F00203194600F0FAF945
:10514000A088A8420AD099062188628802D5914297
:1051500002D303E0914201D92280618029498A1C4F
:10516000B0426089088021D100231380431C0B804A
:1051700000231380831C0B8023885B1E1D0A15806F
:10518000C01C0880D8B21080A0890880002313803A
:10519000431C0B8000231380831C0B8063885B1EE1
:1051A0001C0A1480C01C0880D8B212E000201080B5
:1051B00010802088401E030A1380C0B21080A0898E
:1051C00008800020108010806088401E010A118035
:1051D000C0B21080F0BD0CE030230AE0102308E0DC
:1051E000202306E0382304E0282302E0182300E00F
:1051F0000823BDE8F040032043F4805100F09AB941
:10520000E8000020FE07006C2DE9FC4F5A4E0C46CA
:1052100001464FEA102C3046B588DFF860A182893C
:10522000230A4089A5F513470AF10209413F2DD011
:10523000A5F5A647103F29D096F806E03688A5F5D3
:10524000D047761AA6F1010B043F26D0DFF828815B
:10525000A5F5C857B8F80060761E0196C6F30F266C
:105260000096B8F80280633FA8F10108C8F30F2642
:1052700027D0A5F5AA47103F46D0A5F51447883F8B
:1052800057D03D4BBEF1010F6BD06CE05546AAF8EC
:1052900000004846A9F800C00BE0BEF1010F01D1A3
:1052A0001FFA8BF15546AAF800000E0A4846A9F8E5
:1052B0000060C9B201802A800380E1B20180BDE8AC
:1052C000FC8FBEF1000F11D0AAF800004846A9F8E3
:1052D00000C0C9B2A9F800100099A9F800100199FE
:1052E000C9B20180AAF80020484633E01FFA8BF1CA
:1052F000AAF8000000254846A9F80050A9F8005077
:105300000D0AA9F80050EBE7AAF80000A9F800C0C0
:10531000401CAAF80000C8B2A9F80000AAF80020B2
:10532000A9F80030521CAAF80020E0B2A9F8000049
:10533000C5E7AAF800004846A9F800C0C9B2A9F814
:1053400000100099A9F800100199C9B2A9F800103D
:10535000AAF800200380E1B20180068008F0FF0176
:10536000ACE71FFA8BF100F0E5F898892146BDE81B
:10537000FC4F00F0DFB80000E8000020FE07006CE2
:105380002DE9FF4F1D460C468A46580700D00120E4
:1053900000EBD50069084843203A00F0FF09D0B27D
:1053A0000026DFF89CB0029045E00C2D12D0102DA5
:1053B00015D0182D41D10298224900EBC00000BF42
:1053C00001EB80004FF00008875D38060CD51E48C1
:1053D00002880DE002981D4900EB4000F0E71C49EF
:1053E000029801EB0010EDE70D9828B916484288A5
:1053F00021460098FCF7F8FD7806070E641CBBF800
:105400000200A4B2A04218D9A4EB0A00A84209D114
:1054100000985446401C80B20090BBF800108142B6
:105420000BD906E008F1010000F0FF08B8F1080F01
:10543000CBD3761CF6B24E45B7D3BDE8FF8F000044
:10544000E8000020B46C000808000020506200084A
:10545000C46600082DE9FF4F81B00026DDF838A0B2
:105460001D46934681463446B0464FEA5A0727E028
:10547000281B401EC1B20A20FFF7B1FDBBFBF0F0B4
:105480000A21B0FBF1F201FB120026B9691E8C4221
:1054900001DA48B101263030C2B207FB049080B275
:1054A0005346CDF8008006E007FB049080B25346D7
:1054B0002022CDF800800299FFF762FF641CE4B25D
:1054C000AC42D5D305B0BDE8F08F2DE9F84F0446C6
:1054D00000F0FF0910190D46DDE90AB61FFA80F841
:1054E000581987B24FF0000A12E0444503D305EB88
:1054F0000B004C4685B2BD420FD25B462946204682
:10550000CDF800A0FFF73CFF04EB5B0084B2761CF3
:105510003278A2F120005E28E7D9BDE8F88F0000BC
:10552000024803490089088070470000E800002015
:10553000FE07006C024A1080901C0180704700003A
:10554000FE07006CFEE770477047704730B51EA13C
:1055500089B00FC905AD0D2485E80F0000201EA2FB
:105560008DF80800D2E90012CDE9031210218DF860
:105570000E1003A99DF808300A5C401C5A408DF8B3
:1055800008200528F6D3002005A99DF808300A5CFC
:10559000401C5A408DF80820A042F6D34FF6FF7504
:1055A0002B46052203A90E48FCF7D8FA2B462246C3
:1055B00005A90B48FCF7D2FA2B46012202A908489C
:1055C000FCF7CCFA09B030BDD2BBBCB6CFDEBEE032
:1055D000BEAFB1A800000000FD000D0100000000FA
:1055E0002000002030B51EA189B00FC905AD0D24E3
:1055F00085E80F0000201EA28DF80800D2E90012F5
:10560000CDE9031210218DF80E1003A99DF8083082
:105610000A5C401C5A408DF808200528F6D300206B
:1056200005A99DF808300A5C401C5A408DF80820F6
:10563000A042F6D34FF6FF752B46052203A90E486C
:10564000FCF78CFA2B46224605A90B48FCF786FA94
:105650002B46012202A90848FCF780FA09B030BDA8
:10566000B6FEBCB6CFDEBEE0BEAFB1A80000000003
:10567000FD000D010000000020000020164800B5CC
:10568000016891B021F070610160016841F08071A2
:1056900001601248C16941F00201C161C06900F0B6
:1056A000020010900E4800904FF6FF70039040F2F9
:1056B000CF20019000200490029005908020069059
:1056C0006846FCF7DDF808B1FBF766F86846FCF7BA
:1056D000F3F811B000BD00000018014000100240B6
:1056E00000040040FBF706BD30B58FB014210AA8B6
:1056F000FAF741FD28216846FAF73DFD01200090A8
:1057000000040024CDE901040225CDE907504FF43F
:10571000E01009906846FBF7BDFE00B1FEE70F20E0
:105720000A90CDE90B544FF48060CDE90D040221BD
:105730000AA8FBF7C3FD002800D0FEE70FB030BD7C
:105740000D48016841F00101016041680B4A1140B8
:10575000416001680A4A11400160016821F480211A
:105760000160416821F4FE0141604FF41F01816036
:105770000449C00308607047001002400000FFF8B1
:10578000FFFFF6FE08ED00E00148FCF7B9B80000A5
:1057900060000020F0B502681C4B1D4D1D4E1E4FD1
:1057A0001E4C4FF0804C984209D0A04207D0604573
:1057B00005D0A84203D0B04201D0B84204D122F0B3
:1057C000700E4A6842EA0E02984209D0A04207D001
:1057D000604505D0A84203D0B04201D0B84203D101
:1057E00022F44075CA682A434D6922F080022A4398
:1057F00002608A68C2620A688262984201D0A0424E
:1058000001D10969016301214161F0BD002C014012
:105810000004004000080040000C0040003401403B
:10582000174808B54FF0804101600921C160154952
:1058300041600021016181604161802181611248E4
:10584000C16941F00101C161C069012200F001009C
:10585000009011461C20FBF795FC1C20FBF785FCF3
:105860000748FCF70DF808B1FAF796FF0448FCF773
:1058700035F8002803D0BDE80840FAF78DBF08BD11
:10588000600000203F19010000100240084810B5D8
:10589000016841F040010160322000F019FB04482A
:1058A00000224021BDE810400C38FBF748BB000047
:1058B0000C1801402DE9F041044600680169E268D6
:1058C00021F44051114301612169A06808436169D5
:1058D00008432168CA6841F20C639A430243CA60D4
:1058E00020684169A26921F44071114341611E4958
:1058F000206864253226884202D1FBF785FD01E04D
:10590000FBF772FD00EBC00101EB001160686FF066
:1059100018078000B1FBF0F2B2FBF5F2B1FBF0F337
:105920007A4303EB8202B1FBF0F306EB0212B2FB07
:10593000F5F2B3FBF5F302F0F00202EB0312B1FB58
:10594000F0F3B1FBF0F0B0FBF5F0784303EB80002F
:1059500006EB0010B0FBF5F0216800F00F001044DA
:105960008860BDE8F0810000003801402DE9F04179
:10597000984617460E460446069D1DE0681C1BD03F
:105980002DB1FBF7E1FAA0EB0800A84214D920687A
:10599000C16821F4D071C1602068416921F0010122
:1059A0004161202084F8390084F83A00002084F80E
:1059B00038000320BDE8F0812068006836EA000066
:1059C00004D00020B842D9D00020F3E70120F9E745
:1059D000FEE700000C4810B50A4901604FF416516B
:1059E000416000218160C160016181610C214161E0
:1059F000FCF73EF8002803D0BDE81040FAF7CCBE13
:105A000010BD000000380140200000200FB4054BFD
:105A100010B503A9044A029800F028F810BC5DF8FC
:105A200014FB00001D5F00081C0000200907090E80
:105A3000002804DB00F1E02080F80014704700F03B
:105A40000F0000F1E02080F8141D704702E008C844
:105A5000121F08C1002AFAD170477047002001E0E8
:105A600001C1121F002AFBD1704700002DE9FF4F32
:105A70008DB00F460546002606E025280BD0DDE94F
:105A80000F1290476D1C761C28780028F5D111B0B4
:105A90003046BDE8F08F0024A246A1460122EC4921
:105AA00000E0044315F8013F203B02FA03F00842EE
:105AB000F7D128782A2810D06FF02F022878A0F18B
:105AC0003001092914D80AEB8A0102EB410144F0A4
:105AD000020400EB010A6D1CF0E701CF5FEA000A47
